:100000000C942A000C9447000C9447000C94470071
:100010000C9447000C9447000C9447000C94470044
:100020000C9447000C9447000C9447000C94490032
:100030000C9473000C9447000C9447000C944700F8
:100040000C94F7000C9447000C9447000C94470064
:100050000C94470011241FBECFE5D4E0DEBFCDBF16
:1000600010E0A0E6B0E0ECE5F2E002C005900D92F1
:10007000A636B107D9F710E0A6E6B0E001C01D92A0
:10008000AD3AB107E1F70E941D010C942C010C94CC
:1000900000001F920F920FB60F9211242F938F938F
:1000A0009F93EF93FF939BB12CB1E091A800EF5F7A
:1000B000EF718091A900E81711F482E008C0892F40
:1000C0008871E093A800F0E0EA57FF4F2083809307
:1000D000AA00FF91EF919F918F912F910F900FBEEA
:1000E0000F901F9018951F920F920FB60F92112428
:1000F0008F939F93EF93FF939091A6008091A70019
:10010000981761F0E091A700EF5FEF71E093A7000F
:10011000F0E0EA59FF4F80818CB901C05598FF91FA
:10012000EF919F918F910F900FBE0F901F90189598
:100130009C011092A6001092A7001092A8001092A5
:10014000A90097FF03C082E08BB93F7730BD29B982
:1001500088E98AB986E880BD08959091A8008091C9
:10016000A900981719F420E031E012C0E091A9002D
:10017000EF5FEF71E093A900F0E0EA57FF4F3081A5
:100180002091AA00922F80E0AC01430F511D9A01EB
:10019000C9010895282F9091A6009F5F9F718091BB
:1001A000A7009817E1F3E92FF0E0EA59FF4F208309
:1001B0009093A600559A0895CF93DF93EC0103C066
:1001C00021960E94CA0088818823D1F7DF91CF91C0
:1001D0000895CF93DF93EC0102C00E94CA00FE0194
:1001E000219684918823C9F7DF91CF9108951F92BA
:1001F0000F920FB60F9211242F933F934F935F935B
:100200006F937F938F939F93AF93BF93EF93FF93DE
:1002100080E690E00E94DC00FF91EF91BF91AF91EA
:100220009F918F917F916F915F914F913F912F910E
:100230000F900FBE0F901F9018958FEC90E00E94CA
:1002400098007894B89A80B7887080BF459B02C0A8
:0C025000C09AFCCFC098FACFF894FFCF02
:06025C00686572650000F8
:00000001FF
