:100000000C942A000C9447000C9447000C94470071
:100010000C9447000C9447000C9447000C94470044
:100020000C9447000C9447000C9447000C940F0666
:100030000C9439060C9447000C9447000C9447002C
:100040000C9447000C9447000C9447000C94470014
:100050000C94470011241FBECFE5D4E0DEBFCDBF16
:1000600011E0A0E6B0E0EAECFAE102C005900D92E2
:10007000AE39B107D9F711E0AEE9B1E001C01D9288
:10008000A63EB107E1F70E94300C0C94630D0C946E
:100090000000A0E0B0E0EFE4F0E00C94E70CDC013D
:1000A0002B01FA019C91923008F439C1EB0188814F
:1000B000823008F433C1943069F4843009F02FC1E0
:1000C00011969C9111978981981709F428C1A6E986
:1000D000B0E025C1843009F421C18230A9F4923006
:1000E00009F01DC19A01AD0188E0EA010990AE0155
:1000F000E90109929E018150C1F7E20189811196BF
:100100009C918923818308C1923009F407C112961A
:100110002D903C901397EB018A819B811496AD90B2
:10012000BD90CD90DC901797EC80FD800E811F81F3
:100130009101281B390BB90137FF04C066277727C7
:10014000621B730B603271050CF061C0121613064E
:100150006CF537014801062E04C096948794779475
:1001600067940A94D2F721E030E040E050E004C008
:10017000220F331F441F551F6A95D2F7215030407C
:10018000404050402E213F2140235123211531056D
:100190004105510521F021E030E040E050E07901D7
:1001A0008A01E628F728082919293CC0232BD1F118
:1001B000260E371E35014601062E04C096948794FC
:1001C000779467940A94D2F721E030E040E050E061
:1001D00004C0220F331F441F551F6A95D2F72150C8
:1001E0003040404050402A213B214C215D212115C7
:1001F00031054105510521F021E030E040E050E0BB
:1002000059016A01A628B728C828D9280BC0821529
:1002100093052CF01C01AA24BB24650103C0EE2425
:10022000FF24870111969C91D20111968C91981709
:1002300009F445C0992339F0A80197012A193B090F
:100240004C095D0906C0A60195012E193F09400B16
:10025000510B57FD08C011823382228224833583DB
:10026000468357831DC081E08183338222828827A1
:100270009927DC01821B930BA40BB50B8483958318
:10028000A683B7830DC0220F331F441F551F24833D
:100290003583468357838281938101979383828339
:1002A0002481358146815781DA01C9010197A1096D
:1002B000B1098F5F9F4FAF4FBF4328F30BC09183AE
:1002C00033822282EA0CFB1C0C1D1D1DE482F58288
:1002D0000683178383E0808324813581468157819B
:1002E00057FF1AC0C901AA2797FDA095BA2F8170A0
:1002F0009070A070B0705695479537952795822BD2
:10030000932BA42BB52B84839583A683B7838281FB
:100310009381019693838283DF0101C0D201CD01D5
:10032000CDB7DEB7E2E10C94030DA0E2B0E0EBE95B
:10033000F1E00C94F30C69837A838B839C832D8387
:100340003E834F835887E9E0EE2EF12CEC0EFD1E24
:10035000CE010196B7010E943E058E010F5E1F4F30
:10036000CE010596B8010E943E058A8991E0892751
:100370008A8BC701B801AE01475E5F4F0E944900FA
:100380000E946904A096E6E00C940F0DA0E2B0E094
:10039000ECECF1E00C94F30C69837A838B839C83FF
:1003A0002D833E834F835887F9E0EF2EF12CEC0E1E
:1003B000FD1ECE010196B7010E943E058E010F5E23
:1003C0001F4FCE010596B8010E943E05C701B80136
:1003D000AE01475E5F4F0E9449000E946904A096EB
:1003E000E6E00C940F0DA0E2B0E0E9EFF1E00C9430
:1003F000E70C69837A838B839C832D833E834F83B1
:100400005887CE010196BE01675F7F4F0E943E056F
:10041000CE010596BE016F5E7F4F0E943E05998515
:10042000923088F089898230C8F0943019F4823093
:1004300051F404C0843029F4923081F486E990E0CC
:10044000C6C0923049F420E09A858A89981321E049
:100450002A87CE010996BBC0823049F420E09A85F4
:100460008A89981321E02A8BCE014196B0C02D8451
:100470003E844F8458886D887E888F88988CEE24BF
:10048000FF248701AA24BB24650140E050E060E01E
:1004900070E0E0E0F0E0C10181709070892BE9F03C
:1004A000E60CF71C081D191D9A01AB012A0D3B1D16
:1004B0004C1D5D1D80E090E0A0E0B0E0E614F70484
:1004C0000805190520F481E090E0A0E0B0E0BA0151
:1004D000A901480F591F6A1F7B1FAA0CBB1CCC1C0B
:1004E000DD1C97FE08C081E090E0A0E0B0E0A82A03
:1004F000B92ACA2ADB2A3196E032F10549F0660CA6
:10050000771C881C991C5694479437942794C3CF22
:10051000FA85EA892B893C898B859C85280F391FB0
:100520002E5F3F4F17C0CA0181709070892B61F018
:1005300016950795F794E79480E090E0A0E0B0E886
:10054000E82AF92A0A2B1B2B76956795579547952C
:100550002F5F3F4F77FDE7CF0CC0440F551F661F3D
:10056000771F17FD4160EE0CFF1C001F111F21506B
:100570003040403090E0590790E0690790E47907F7
:1005800060F32B8F3C8FDB01CA018F779070A070D6
:10059000B07080349105A105B10561F447FD0AC032
:1005A000E114F1040105110529F0405C5F4F6F4F24
:1005B0007F4F40781A8EFE1711F081E08A8F4D8FA1
:1005C0005E8F6F8F78A383E0898FCE0149960E945A
:1005D0006904A096E2E10C94030DA8E1B0E0E3EF1A
:1005E000F2E00C94F30C69837A838B839C832D83D4
:1005F0003E834F83588789E0E82EF12CEC0EFD1ED8
:10060000CE010196B7010E943E058E010F5E1F4F7D
:10061000CE010596B8010E943E058985823040F0E2
:100620008989823028F0C701B8010E94B60501C04F
:100630008FEF6896E6E00C940F0DA8E1B0E0E3E2DE
:10064000F3E00C94F30C69837A838B839C832D8372
:100650003E834F83588789E0E82EF12CEC0EFD1E77
:10066000CE010196B7010E943E058E010F5E1F4F1D
:10067000CE010596B8010E943E058985823040F082
:100680008989823028F0C701B8010E94B60501C0EF
:1006900081E06896E6E00C940F0DACE0B0E0E3E595
:1006A000F3E00C94F70C69837A838B839C83CE01EF
:1006B0000196BE016B5F7F4F0E943E058D818230A7
:1006C00061F1823050F1843021F48E81882351F120
:1006D0002EC02F81388537FD20C06E812F31310526
:1006E0001CF06623F9F023C08EE190E0821B930B8F
:1006F00029853A854B855C8504C056954795379585
:1007000027958A95D2F76623B1F05095409530959C
:1007100021953F4F4F4F5F4F0EC020E030E040E04B
:1007200050E009C02FEF3FEF4FEF5FE704C020E03C
:1007300030E040E050E8B901CA012C96E2E00C94A8
:10074000130DA8E0B0E0E7EAF3E00C94EF0C7B01B6
:100750008C01611571058105910519F482E0898389
:1007600060C083E089838EE1C82ED12CDC82CB82ED
:10077000ED82FE820F831887C801B7010E941A0418
:10078000FC013197F7FF3BC0222733272E1B3F0B7D
:1007900057016801022E04C0D694C794B794A79459
:1007A0000A94D2F740E050E060E070E081E090E031
:1007B000A0E0B0E004C0880F991FAA1FBB1F2A95B4
:1007C000D2F70197A109B1098E219F21A023B1235E
:1007D0000097A105B10521F041E050E060E070E034
:1007E0004A295B296C297D294D835E836F83788735
:1007F0008EE190E08E1B9F0B9C838B8312C0309701
:1008000081F00E2E04C0EE0CFF1C001F111F0A9475
:10081000D2F7ED82FE820F831887CE1ADF0ADC82C0
:10082000CB821A82CE0101960E9469042896EAE0E2
:100830000C940B0DEF92FF920F931F937B018C0191
:1008400080E0E81680E0F80681E0080780E01807FD
:1008500088F48FEFE816F1040105110531F028F056
:1008600088E090E0A0E0B0E017C080E090E0A0E079
:10087000B0E012C080E0E81680E0F80680E00807EB
:1008800081E0180728F088E190E0A0E0B0E004C023
:1008900080E190E0A0E0B0E020E230E040E050E015
:1008A000281B390B4A0B5B0B04C016950795F79470
:1008B000E7948A95D2F7F701E256FF4F8081281B13
:1008C000310941095109C9011F910F91FF90EF9022
:1008D0000895DF92EF92FF920F931F93FC01E48043
:1008E000F58006811781D1808081823048F480E0D4
:1008F00090E0A0E1B0E0E82AF92A0A2B1B2BA5C062
:10090000843009F49FC0823021F4EE24FF24870153
:1009100005C0E114F1040105110519F4E0E0F0E06F
:1009200096C0628173819FEF623879070CF05BC0DB
:1009300022E83FEF261B370B2A3131052CF020E04F
:1009400030E040E050E02AC0B801A701022E04C008
:1009500076956795579547950A94D2F781E090E090
:10096000A0E0B0E004C0880F991FAA1FBB1F2A9502
:10097000D2F70197A109B1098E219F21A023B123AC
:100980000097A105B10521F081E090E0A0E0B0E082
:100990009A01AB01282B392B4A2B5B2BDA01C901B9
:1009A0008F779070A070B07080349105A105B1056B
:1009B00039F427FF09C0205C3F4F4F4F5F4F04C001
:1009C000215C3F4F4F4F5F4FE0E0F0E02030A0E070
:1009D0003A07A0E04A07A0E45A0710F0E1E0F0E08F
:1009E00079018A0127C06038710564F5FB01E1587F
:1009F000FF4FD801C7018F779070A070B07080341E
:100A00009105A105B10539F4E7FE0DC080E490E041
:100A1000A0E0B0E004C08FE390E0A0E0B0E0E80E1A
:100A2000F91E0A1F1B1F17FF05C016950795F7949F
:100A3000E794319687E016950795F794E7948A95A1
:100A4000D1F705C0EE24FF248701EFEFF0E06E2F11
:100A5000679566276795902F9F77D794DD24D79465
:100A60008E2F8695492F462B582F5D29B701CA0135
:100A70001F910F91FF90EF90DF900895FC01DB0133
:100A8000408151812281622F6F7770E0221F2227DF
:100A9000221F9381892F880F822B282F30E0991FE6
:100AA0009927991F11969C93119721153105A9F546
:100AB000411551056105710511F482E037C082E8E6
:100AC0009FEF13969C938E9312979A01AB0167E068
:100AD000220F331F441F551F6A95D1F783E08C9373
:100AE0000DC0220F331F441F551F12968D919C91EC
:100AF0001397019713969C938E931297203080E062
:100B0000380780E0480780E4580758F314962D937F
:100B10003D934D935C93179708952F3F310579F4DA
:100B2000411551056105710519F484E08C93089510
:100B300064FF03C081E08C9312C01C9210C02F5739
:100B4000304013963C932E93129783E08C9387E06A
:100B5000440F551F661F771F8A95D1F7706414964E
:100B60004D935D936D937C93179708951F93DC01CC
:100B7000FB019C91923008F447C08081823008F4D8
:100B800043C0943051F411961C91843099F58181C1
:100B9000682F70E0611B71093FC0843021F09230F2
:100BA00031F48230B9F18181882389F12DC0119609
:100BB0001C9111978230F1F081811817D9F41296A7
:100BC0002D913C911397828193818217930794F022
:100BD00028173907BCF014968D919D910D90BC910A
:100BE000A02D2481358146815781281739074A076E
:100BF0005B0718F4112341F00AC082179307A4077A
:100C0000B50740F4112319F061E070E005C06FEF03
:100C10007FEF02C060E070E0CB011F9108951F924A
:100C20000F920FB60F9211242F938F939F93EF93F0
:100C3000FF939BB12CB1E091E001EF5FEF718091E8
:100C4000E101E81711F482E008C0892F8871E09370
:100C5000E001F0E0E254FE4F20838093E201FF9137
:100C6000EF919F918F912F910F900FBE0F901F903A
:100C700018951F920F920FB60F9211248F939F9386
:100C8000EF93FF939091DE018091DF01981761F05F
:100C9000E091DF01EF5FEF71E093DF01F0E0E256FA
:100CA000FE4F80818CB901C05598FF91EF919F91C3
:100CB0008F910F900FBE0F901F9018959C0110926E
:100CC000DE011092DF011092E0011092E10197FF26
:100CD00003C082E08BB93F7730BD29B988E98AB972
:100CE00086E880BD08959091E0018091E101981718
:100CF00019F420E031E012C0E091E101EF5FEF7103
:100D0000E093E101F0E0E254FE4F30812091E201F6
:100D1000922F80E0AC01430F511D9A01C901089543
:100D2000282F9091DE019F5F9F718091DF019817BE
:100D3000E1F3E92FF0E0E256FE4F20839093DE01CD
:100D4000559A0895CF93DF93EC0103C021960E943A
:100D5000900688818823D1F7DF91CF910895CF93B2
:100D6000DF93EC0102C00E949006FE01219684915F
:100D70008823C9F7DF91CF910895BF92CF92DF9278
:100D8000EF92FF920F931F93DF93CF9300D000D089
:100D90000F92CDB7DEB7DC0187B341E050E002C06F
:100DA000440F551F6A95E2F7942F842B87BB88B3B5
:100DB000242F2095822388BBE0EAFCE83197F1F7E5
:100DC00088B3982B98BB8AE68A95F1F787B32823D6
:100DD00027BB2FEF04C0222309F46FC0215086B334
:100DE00090E084239523892BB1F32FEF04C02223B5
:100DF00009F463C0215086B390E084239523892BA6
:100E0000B1F705C0222309F458C0215012C01D8239
:100E10001C821B821A82198277E000E010E09AE1BE
:100E2000B92E6E010894C11CD11C81E0E82EF12C72
:100E30002FEF86B390E084239523892B19F320E0CC
:100E400030E009C08B2D8A95F1F72F5F3F4F81E08D
:100E50002030380791F186B390E084239523892BC5
:100E600089F7223068F0F601E00FF11D9701072E97
:100E700002C0220F331F0A94E2F78081822B808305
:100E8000772319F40F5F77E001C071501F5F1832AC
:100E900079F629813B81932F920F8D81891711F06B
:100EA0008FEF0CC02C9311961C92119712963C93C5
:100EB000129713961C9280E001C08EEF0F900F9056
:100EC0000F900F900F90CF91DF911F910F91FF9096
:100ED000EF90DF90CF90BF900895882311F08FEFAF
:100EE00008958091E4010895882371F4683060F4D6
:100EF0008091E401992787FD909502C0959587958B
:100F00006A95E2F7817008958FEF08951F93882303
:100F100011F01FEF09C08FE40E94550A0E94B00A29
:100F2000182F10950E94950A812F1F9108951F93E5
:100F3000162F882381F4683070F40E9486078F3F53
:100F400059F0992787FD909502C0959587951A9538
:100F5000E2F7817001C08FEF1F9108951F938823DE
:100F600031F5683020F52091E401442351F081E00F
:100F700090E002C0880F991F6A95E2F7122F182B94
:100F80000AC081E090E002C0880F991F6A95E2F7DD
:100F9000182F109512231093E4018EE40E94550A35
:100FA000812F0E949B0A0E94950A80E001C08FEF6A
:100FB0001F91089540E00E94AE07089541E00E940D
:100FC000AE0708951F93942F8823D9F5E42FF0E0FE
:100FD000462F50E04E1B5F0B8FEF4F3F58078CF1B1
:100FE000683078F5662369F1992359F16091E4013D
:100FF0004F5F5F4F332727FD3095042E02C0220F2D
:10100000331F0A94E2F781E090E002C0880F991F35
:10101000EA95E2F7019702C0880F991F4A95E2F717
:10102000182F109516238223182B1093E4018EE4B9
:101030000E94550A812F0E949B0A0E94950A80E017
:1010400001C08FEF1F9108951F93162F882311F071
:101050008FEF0BC06093E4018EE40E94550A812F4C
:101060000E949B0A0E94950A80E01F9108950E94A9
:10107000510A8AE18A95F1F71092E40108958823D4
:1010800021F08091E301877F03C08091E3018860B4
:101090008093E3016091E30180E00E9424080895B9
:1010A00080E062E00E94DE0700C080E062E00E9413
:1010B000DA0708951F93182F662321F08091E3012A
:1010C000816003C08091E3018E7F8093E301809172
:1010D000E3018D7F8093E3016091E30180E00E9452
:1010E00024088091E3018F778093E3018091E301ED
:1010F0008F7B8093E3018091E3018F7D8093E301F7
:101100008091E3018F7E8093E30117FF05C08091FA
:10111000E30180688093E30116FF05C08091E3013D
:1011200080648093E30115FF05C08091E301806234
:101130008093E30114FF05C08091E30180618093F7
:10114000E3016091E30180E00E9424080E945008BE
:101150008091E3018F778093E3018091E3018F7B9E
:101160008093E3018091E3018F7D8093E30180917F
:10117000E3018F7E8093E30113FF05C08091E301BB
:1011800080688093E30112FF05C08091E3018064D1
:101190008093E30111FF05C08091E3018062809399
:1011A000E30110FF05C08091E30180618093E301BA
:1011B0006091E30180E00E9424080E945008809121
:1011C000E30180618093E3018091E3018062809379
:1011D000E3018091E30180648093E3018091E30166
:1011E00080688093E3016091E30180E00E9424081D
:1011F0001F9108951F93882321F08091E30181605E
:1012000003C08091E3018E7F8093E3018091E3012D
:1012100082608093E3016091E30180E00E942408F2
:1012200080E062E00E94DE0700C080E064E00E948F
:101230009707882311F410E101C010E080E065E019
:101240000E949707882309F4106280E066E00E94FC
:101250009707882309F4106480E067E00E949707ED
:10126000882309F4106880E062E00E94DA0700C079
:1012700080E062E00E94DE0700C080E064E00E943F
:101280009707882309F4116080E065E00E949707C2
:10129000882309F4126080E066E00E9497078823A3
:1012A00009F4146080E067E00E949707882309F43E
:1012B000186080E062E00E94DA07812F1F91089594
:1012C00080E00E94FA0887FDFBCF84E090E0019760
:1012D000F1F780E00E94FA0808950E94600990E00A
:1012E00008951F93182F0E946009812F61E00E94CA
:1012F0005A081F9108951F93182F0E946009812F8B
:1013000060E00E945A081F91089582E00E947B09C4
:10131000089581E00E947B090895FF920F931F9327
:10132000F82E0E9437081092E3016091E30180E0FB
:101330000E94240880E09DE70197F1F78091E30186
:1013400080628093E3018091E30180618093E301F7
:101350006091E30180E00E9424080E94500880E030
:1013600097E20197F1F70E94500800E810E0C801E9
:101370000197F1F70E945008C8010197F1F7809199
:10138000E3018F7E8093E3016091E30180E00E949E
:1013900024080E945008C8010197F1F788E20E94D2
:1013A0007B0988E00E947B090E94890986E00E94EF
:1013B0007B098F2D0E947B091F910F91FF9008954B
:1013C000662311F4805801C080540E947B0908955F
:1013D0001F93182F0E9460091A3049F4803410F0CE
:1013E00080E001C080E480580E947B0910C08031F9
:1013F00011F480EC03C0803521F480E860E00E94A5
:101400005A080E946009812F61E00E945A081F91CA
:101410000895CF93DF93EC0102C00E94E809FE011A
:10142000219684918823C9F7DF91CF910895CF93B6
:10143000DF93EC0102C00E94E80989918823D9F763
:10144000DF91CF9108950F931F93CF93DF938B017B
:10145000883010F081E013C0880F880F880F805CFF
:101460000E947B09C0E0D0E0F801EC0FFD1F8081F5
:101470000E94E8092196C830D105B1F780E0DF91DC
:10148000CF911F910F9108951F9310E4812F0E9417
:101490007B0980E00E94E8091F5F1038B9F71F91AF
:1014A000089511B880E280B90895982F84EA86BF24
:1014B00006B607FEFDCF81B1887F883021F08031EC
:1014C00011F081E0089593B984E886BF06B607FE5F
:1014D000FDCF91B1987F983111F480E0089580E0BC
:1014E000903409F081E0089544EA34E824E946BFE5
:1014F00006B607FEFDCF91B1987F983011F090317C
:10150000B1F783B936BF06B607FEFDCF91B1987F1C
:10151000903211F0983529F426BF06B604FCFDCFB1
:10152000E6CF08950E94550A089584E986BF06B65D
:1015300004FCFDCF089583B984E886BF06B607FE94
:10154000FDCF81B190E0887F883209F091E0892F4A
:10155000089584EC86BF06B607FEFDCF83B10895DB
:1015600084E886BF06B607FEFDCF83B1089580E20A
:101570009EE428EC30E0F9013197F1F70197D9F7B3
:101580001092E50108958091E5010895AF92BF9210
:10159000CF92DF92EF92FF920F931F93DF93CF933F
:1015A00000D000D00F92CDB7DEB75C01FE013196BE
:1015B00085E0DF011D928A95E9F71092E501C09858
:1015C000B89A80E49CE90197F1F7C09AB89890E046
:1015D00025E00AC0822F8A95F1F79E5F9E3321F4A1
:1015E00084E08093E50102C0B099F4CF8091E501D9
:1015F000882359F01DC0822F8A95F1F79E5F963699
:1016000031F484E08093E5010FC090E025E0B09BC9
:10161000F2CF0AC0822F8A95F1F79E5F963631F499
:1016200084E08093E50104C090E025E0B099F2CF1A
:101630008091E501882309F048C040E050E025E0B2
:10164000D22E9DE5C92EBE016F5F7F4F81E0E82E4F
:10165000F12C012D112D35C09D2D9A95F1F78E5F3E
:10166000883421F445E03FEF21C080E0B09BF4CF07
:10167000552309F58C2D8A95F1F7B09B19C0FB0114
:10168000E40FF11DD801C701032E04C0880F991F74
:10169000AA1FBB1F0A94D2F72081282B208308C0E1
:1016A0009D2D9A95F1F78E5F863619F454E003C0AC
:1016B00080E0B099F5CF315037FFD7CF4F5F45303D
:1016C00010F437E0D2CF5093E5018091E5018823F3
:1016D00001F58A819981890F9B81890F9C81890FEE
:1016E0009D81891721F083E08093E50112C020E0FD
:1016F00030E0AE014F5F5F4FF501E20FF31FDA01FB
:10170000A20FB31F8C9180832F5F3F4F2430310590
:1017100099F78091E5010F900F900F900F900F9027
:10172000CF91DF911F910F91FF90EF90DF90CF90BD
:10173000BF90AF900895AF92BF92CF92DF92EF9299
:10174000FF920F931F93DF93CF9300D000D0CDB7BC
:10175000DEB78C017B0119821A821B821C82CE01AA
:1017600001960E94C60A882309F04AC06B8170E086
:1017700080E090E00E94A103F8016083718382837E
:101780009383698170E080E090E00E94A1035B0197
:101790006C01F7016083718382839383F801E08099
:1017A000F18002811381C801B70120E030E040E000
:1017B00050E00E941D0387FD0AC0C801B70120E068
:1017C00030E048E452E40E94ED02181614F482E07E
:1017D00015C0C601B50120E030E040EA51E40E94A6
:1017E0001D0387FD0AC0C601B50120E030E044EBCF
:1017F00052E40E94ED0218161CF481E08093E5018A
:101800008091E5010F900F900F900F90CF91DF9195
:101810001F910F91FF90EF90DF90CF90BF90AF900E
:101820000895BC0180E090E00E949B0B089560E069
:1018300070E00E949B0B089526E636E646EE5FE3D5
:101840000E94F30120E030E040E052E40E94C60133
:10185000089523E333E948E853E40E94C60108955C
:101860002F923F924F925F926F927F928F929F92B0
:10187000AF92BF92CF92DF92EF92FF920F931F939E
:10188000DF93CF93CDB7DEB76C970FB6F894DEBF7A
:101890000FBECDBF8FEC90E00E945E0678948DE085
:1018A0000E948D090E94850980E00E943F080E94E5
:1018B000B70A1E010894211C311C29E0622E712CEC
:1018C0006C0E7D1E93E1892E912C8C0E9D1E88EC52
:1018D000482E512CC101BE016B5F7F4F0E949B0BB4
:1018E000E980FA800B811C81AD80BE80CF80D884D6
:1018F0000E94C30A833009F457C0843009F457C0EA
:10190000882309F057C080E060E00E94E00980E68B
:1019100090E00E94170AC801B7010E944D03DC0144
:10192000CB01B3014AE050E00E941E0D80E690E03A
:101930000E94A206C3010E94A20683E060E00E940A
:10194000E009C3010E94170A8FED0E94E80983E6AF
:1019500090E00E94170A80E061E00E94E00985E6BD
:1019600090E00E94170A85E690E00E94A206C60158
:10197000B5010E944D03DC01CB01B4014AE050E007
:101980000E941E0D83E061E00E94E009C4010E94F4
:10199000A20688E690E00E94A206C4010E94170AEF
:1019A00085E20E94E8090AC08AE690E005C08AE75D
:1019B00090E002C089E890E00E94A20680E29EE4E6
:1019C000F2013197F1F7019709F484CFF9CF2F9203
:1019D0003F924F925F926F927F928F929F92AF92BF
:1019E000BF92CF92DF92EF92FF920F931F93CF930C
:1019F000DF93CDB7DEB7CA1BDB0B0FB6F894DEBFA3
:101A00000FBECDBF09942A88398848885F846E84C8
:101A10007D848C849B84AA84B984C884DF80EE8012
:101A2000FD800C811B81AA81B981CE0FD11D0FB61B
:101A3000F894DEBF0FBECDBFED010895FB019F01FD
:101A4000E8944230C4F04532B4F44A3029F497FBAC
:101A50001EF4909581959F4F642F77270E944F0D1C
:101A6000805D8A330CF0895D8193CB010097A1F7EB
:101A700016F45DE251931082C9010C943F0DDC0114
:101A8000FC01672F71917723E1F7329704C07C91B5
:101A90006D9370836291AE17BF07C8F30895AA1BB8
:101AA000BB1B51E107C0AA1FBB1FA617B70710F049
:101AB000A61BB70B881F991F5A95A9F7809590957B
:0A1AC000BC01CD010895F894FFCF9A
:101ACA00543A004300483A000A004572726F722085
:101ADA00436865636B73756D0A004572726F722095
:101AEA0054696D656F75740A004F74686572204594
:101AFA0072726F720A00000000000000000000010C
:101B0A000202030303030404040404040404050591
:101B1A000505050505050505050505050505060669
:101B2A00060606060606060606060606060606064B
:101B3A000606060606060606060606060606070739
:101B4A00070707070707070707070707070707071B
:101B5A00070707070707070707070707070707070B
:101B6A0007070707070707070707070707070707FB
:101B7A0007070707070707070707070707070808E9
:101B8A0008080808080808080808080808080808CB
:101B9A0008080808080808080808080808080808BB
:101BAA0008080808080808080808080808080808AB
:101BBA00080808080808080808080808080808089B
:101BCA00080808080808080808080808080808088B
:101BDA00080808080808080808080808080808087B
:101BEA00080808080808080808080808080808086B
:0E1BFA0008080808080808080808080808086D
:00000001FF
