:100000000C942A000C943C000C943C000C943C0092
:100010000C943C000C943C000C943C000C943C0070
:100020000C943C000C943C000C943C000C943E005E
:100030000C9468000C943C000C943C000C943C0024
:100040000C943C000C943C000C943C000C943C0040
:100050000C943C0011241FBECFE5D4E0DEBFCDBF21
:1000600010E0A0E6B0E001C01D92A53AB107E1F7AB
:100070000E94EC000C946E010C9400001F920F92F1
:100080000FB60F9211242F938F939F93EF93FF93AB
:100090009BB12CB1E091A200EF5FEF718091A300C2
:1000A000E81711F482E008C0892F8871E093A2005C
:1000B000F0E0E058FF4F20838093A400FF91EF9180
:1000C0009F918F912F910F900FBE0F901F901895B9
:1000D0001F920F920FB60F9211248F939F93EF935D
:1000E000FF939091A0008091A100981761F0E0919A
:1000F000A100EF5FEF71E093A100F0E0E05AFF4F45
:1001000080818CB901C05598FF91EF919F918F919B
:100110000F900FBE0F901F9018959C011092A00099
:100120001092A1001092A2001092A30097FF03C0AA
:1001300082E08BB93F7730BD29B988E98AB986E872
:1001400080BD08959091A2008091A300981719F4A2
:1001500020E031E012C0E091A300EF5FEF71E09387
:10016000A300F0E0E058FF4F30812091A400922FCF
:1001700080E0AC01430F511D9A01C9010895282F59
:100180009091A0009F5F9F718091A1009817E1F36B
:10019000E92FF0E0E05AFF4F20839093A000559A9A
:1001A0000895CF93DF93EC0103C021960E94BF0016
:1001B00088818823D1F7DF91CF910895CF93DF9382
:1001C000EC0102C00E94BF00FE01219684918823A9
:1001D000C9F7DF91CF910895CF92DF92EF92FF920E
:1001E0000F931F93DF93CF93CDB7DEB72A970FB648
:1001F000F894DEBF0FBECDBF8FEC90E00E948D0063
:1002000078948AB38FEF8ABBB89A88B388BB00E032
:1002100010E07E010894E11CF11C88ECC82ED12C62
:100220000BBBC801B7014AE050E00E942901C70199
:100230000E94D10080E197E2F6013197F1F7019732
:10024000D9F70F5F1F4F0031110554F300E010E0A4
:10025000E7CFFB019F01E8944230C4F04532B4F48B
:100260004A3029F497FB1EF4909581959F4F642F97
:1002700077270E945A01805D8A330CF0895D819353
:10028000CB010097A1F716F45DE251931082C901EA
:100290000C944A01DC01FC01672F71917723E1F78F
:1002A000329704C07C916D9370836291AE17BF0743
:1002B000C8F30895AA1BBB1B51E107C0AA1FBB1FAF
:1002C000A617B70710F0A61BB70B881F991F5A95E2
:1002D000A9F780959095BC01CD010895F894FFCFC2
:00000001FF
