:100000000C942A000C9447000C9447000C94470071
:100010000C9447000C9447000C9447000C94470044
:100020000C9447000C9447000C9447000C94490032
:100030000C9473000C9447000C9447000C944700F8
:100040000C9447000C9447000C9447000C94470014
:100050000C94470011241FBECFE5D4E0DEBFCDBF16
:1000600010E0A0E6B0E0ECEBF3E002C005900D92EA
:10007000A638B107D9F710E0A6E8B0E001C01D929C
:10008000AB3CB107E1F70E940E010C94DC010C942B
:1000900000001F920F920FB60F9211242F938F938F
:1000A0009F93EF93FF939BB12CB1E091C800EF5F5A
:1000B000EF718091C900E81711F482E008C0892F20
:1000C0008871E093C800F0E0EA55FF4F20838093E9
:1000D000CA00FF91EF919F918F912F910F900FBECA
:1000E0000F901F9018951F920F920FB60F92112428
:1000F0008F939F93EF93FF939091C6008091C700D9
:10010000981761F0E091C700EF5FEF71E093C700CF
:10011000F0E0EA57FF4F80818CB901C05598FF91FC
:10012000EF919F918F910F900FBE0F901F90189598
:100130009C011092C6001092C7001092C800109245
:10014000C90097FF03C082E08BB93F7730BD29B962
:1001500088E98AB986E880BD08959091C8008091A9
:10016000C900981719F420E031E012C0E091C900ED
:10017000EF5FEF71E093C900F0E0EA55FF4F308187
:100180002091CA00922F80E0AC01430F511D9A01CB
:10019000C9010895282F9091C6009F5F9F7180919B
:1001A000C7009817E1F3E92FF0E0EA57FF4F2083EB
:1001B0009093C600559A0895CF93DF93EC0103C046
:1001C00021960E94CA0088818823D1F7DF91CF91C0
:1001D0000895CF93DF93EC0102C00E94CA00FE0194
:1001E000219684918823C9F7DF91CF910895E199F1
:1001F000FECF07B600FCFDCF9FBB8EBBE09AE09917
:10020000FECF8DB30895E199FECF07B600FCFDCF78
:100210007FBB6EBB8DBBE29AE19A0895CF92DF92CD
:10022000EF92FF920F931F93DF93CF93CDB7DEB77B
:10023000C45DD0400FB6F894DEBF0FBECDBF8FECCB
:1002400090E00E949800789480E690E00E94DC00A4
:100250001A8219820BC089819A8169817A810E94F0
:10026000030189819A8101969A83898389819A8180
:100270008436910584F38AE690E00E94DC001A82BD
:1002800019827E010894E11CF11C13C009811A81B6
:1002900089819A810E94F70090E0000F111F0E0DD6
:1002A0001F1DF8019587848789819A8101969A8319
:1002B000898389819A818436910544F388E790E0A7
:1002C0000E94DC001A8219826E010894C11CD11CA4
:1002D00033E0E32EF12CEC0EFD1E23C009811A81C0
:1002E00089819A810E94F70090E0000F111F0C0D88
:1002F0001D1DF80195878487E981FA81EE0FFF1FA4
:10030000EC0DFD1D84859585B7014AE050E00E9403
:100310009701C7010E94DC0089819A8101969A8326
:10032000898389819A8184369105C4F2FFCFFB01CC
:100330009F01E8944230C4F04532B4F44A3029F4C5
:1003400097FB1EF4909581959F4F642F77270E940D
:10035000C801805D8A330CF0895D8193CB010097E1
:10036000A1F716F45DE251931082C9010C94B80113
:10037000DC01FC01672F71917723E1F7329704C00C
:100380007C916D9370836291AE17BF07C8F3089597
:10039000AA1BBB1B51E107C0AA1FBB1FA617B707AB
:1003A00010F0A61BB70B881F991F5A95A9F78095C7
:0C03B0009095BC01CD010895F894FFCF9A
:1003BC0073746172742E2E2E0A0077726974652024
:1003CC0066696E6973680A00726561642066696E9D
:0603DC006973680A0000CD
:00000001FF
