:100000000C942A000C9447000C9447000C94470071
:100010000C9447000C9447000C9447000C94470044
:100020000C9447000C9447000C9447000C94490032
:100030000C9473000C9447000C9400010C9447003E
:100040000C9447000C9447000C9447000C94470014
:100050000C94470011241FBECFE5D4E0DEBFCDBF16
:1000600010E0A0E6B0E0EAE4F3E002C005900D92F3
:10007000AA36B107D9F710E0AAE6B0E001C01D9298
:10008000AB3BB107E1F70E943F010C94A3010C9434
:1000900000001F920F920FB60F9211242F938F938F
:1000A0009F93EF93FF939BB12CB1E091AC00EF5F76
:1000B000EF718091AD00E81711F482E008C0892F3C
:1000C0008871E093AC00F0E0E657FF4F2083809307
:1000D000AE00FF91EF919F918F912F910F900FBEE6
:1000E0000F901F9018951F920F920FB60F92112428
:1000F0008F939F93EF93FF939091AA008091AB0011
:10010000981761F0E091AB00EF5FEF71E093AB0007
:10011000F0E0E659FF4F80818CB901C05598FF91FE
:10012000EF919F918F910F900FBE0F901F90189598
:100130009C011092AA001092AB001092AC00109299
:10014000AD0097FF03C082E08BB93F7730BD29B97E
:1001500088E98AB986E880BD08959091AC008091C5
:10016000AD00981719F420E031E012C0E091AD0025
:10017000EF5FEF71E093AD00F0E0E657FF4F3081A5
:100180002091AE00922F80E0AC01430F511D9A01E7
:10019000C9010895282F9091AA009F5F9F718091B7
:1001A000AB009817E1F3E92FF0E0E659FF4F208309
:1001B0009093AA00559A0895CF93DF93EC0103C062
:1001C00021960E94CA0088818823D1F7DF91CF91C0
:1001D0000895CF93DF93EC0102C00E94CA00FE0194
:1001E000219684918823C9F7DF91CF91089594B126
:1001F00085B185B1382F20E0290F311DC90108953F
:100200001F920F920FB60F9211240F931F932F93EB
:100210003F934F935F936F937F938F939F93AF938E
:10022000BF93EF93FF9334B185B125B1922F80E056
:10023000830F911D9093B0008093AF008091AF0029
:100240009091B00001EB10E0B8014AE050E00E944C
:100250005E01C8010E94DC00FF91EF91BF91AF9158
:100260009F918F917F916F915F914F913F912F91CE
:100270001F910F910F900FBE0F901F9018958FEC4C
:1002800090E00E949800789480E690E00E94DC0064
:100290003E9A86B18B6886B9369A20E931E048ECFF
:1002A00050E005C0CA010197F1F7215030402115F7
:1002B0003105C1F7369A20E931E0F4CFFB019F0107
:1002C000E8944230C4F04532B4F44A3029F497FB44
:1002D0001EF4909581959F4F642F77270E948F0180
:1002E000805D8A330CF0895D8193CB010097A1F783
:1002F00016F45DE251931082C9010C947F01DC0178
:10030000FC01672F71917723E1F7329704C07C914C
:100310006D9370836291AE17BF07C8F30895AA1B4F
:10032000BB1B51E107C0AA1FBB1FA617B70710F0E0
:10033000A61BB70B881F991F5A95A9F78095909512
:0A034000BC01CD010895F894FFCF31
:0A034A0073746172742E2E2E0A00E7
:00000001FF
